{
  "contractName": "EaseContract",
  "abi": [
    {
      "inputs": [],
      "stateMutability": "nonpayable",
      "type": "constructor"
    },
    {
      "inputs": [],
      "name": "getValue",
      "outputs": [
        {
          "internalType": "string",
          "name": "",
          "type": "string"
        }
      ],
      "stateMutability": "view",
      "type": "function",
      "constant": true
    },
    {
      "inputs": [
        {
          "internalType": "string",
          "name": "_value",
          "type": "string"
        }
      ],
      "name": "setValue",
      "outputs": [],
      "stateMutability": "nonpayable",
      "type": "function"
    }
  ],
  "bytecode": "0x60806040523480156200001157600080fd5b506040518060400160405280600b81526020017f48656c6c6f20576f726c6400000000000000000000000000000000000000000081525060009081620000589190620002df565b50620003c6565b600081519050919050565b7f4e487b7100000000000000000000000000000000000000000000000000000000600052604160045260246000fd5b7f4e487b7100000000000000000000000000000000000000000000000000000000600052602260045260246000fd5b60006002820490506001821680620000e157607f821691505b602082108103620000f757620000f662000099565b5b50919050565b60008190508160005260206000209050919050565b60006020601f8301049050919050565b60008160020a8302905092915050565b600060088302620001647fffffffffffffffffffffffffffffffffffffffffffffffffffffffffffffffff8262000122565b62000170868362000122565b95508019841693508086168417925050509392505050565b6000819050919050565b6000819050919050565b6000620001bd620001b7620001b18462000188565b62000192565b62000188565b9050919050565b6000819050919050565b620001d9836200019c565b620001f1620001e882620001c4565b84845462000132565b825550505050565b600090565b62000208620001f9565b62000215818484620001ce565b505050565b5b818110156200023d5762000231600082620001fe565b6001810190506200021b565b5050565b601f8211156200028c576200025681620000fd565b620002618462000112565b8101602085101562000271578190505b62000289620002808562000112565b8301826200021a565b50505b505050565b60008160020a8304905092915050565b6000620002b46000198460080262000291565b1980831691505092915050565b6000620002cf8383620002a1565b9150826002028217905092915050565b620002ea826200005f565b67ffffffffffffffff8111156200030657620003056200006a565b5b620003128254620000c8565b6200031f82828562000241565b600060209050601f83116001811462000357576000841562000342578287015190505b6200034e8582620002c1565b865550620003be565b601f1984166200036786620000fd565b60005b8281101562000391578489015182556001820191506020850194506020810190506200036a565b86831015620003b15784890151620003ad601f891682620002a1565b8355505b6001600288020188555050505b505050505050565b61069f80620003d66000396000f3fe608060405234801561001057600080fd5b5060043610610053576000357c010000000000000000000000000000000000000000000000000000000090048063209652551461005857806393a0935214610076575b600080fd5b610060610092565b60405161006d91906101c7565b60405180910390f35b610090600480360381019061008b9190610332565b610124565b005b6060600080546100a1906103aa565b80601f01602080910402602001604051908101604052809291908181526020018280546100cd906103aa565b801561011a5780601f106100ef5761010080835404028352916020019161011a565b820191906000526020600020905b8154815290600101906020018083116100fd57829003601f168201915b5050505050905090565b80600090816101339190610597565b5050565b600081519050919050565b600082825260208201905092915050565b60005b83811015610171578082015181840152602081019050610156565b60008484015250505050565b6000601f19601f8301169050919050565b600061019982610137565b6101a38185610142565b93506101b3818560208601610153565b6101bc8161017d565b840191505092915050565b600060208201905081810360008301526101e1818461018e565b905092915050565b6000604051905090565b600080fd5b600080fd5b600080fd5b600080fd5b7f4e487b7100000000000000000000000000000000000000000000000000000000600052604160045260246000fd5b61023f8261017d565b810181811067ffffffffffffffff8211171561025e5761025d610207565b5b80604052505050565b60006102716101e9565b905061027d8282610236565b919050565b600067ffffffffffffffff82111561029d5761029c610207565b5b6102a68261017d565b9050602081019050919050565b82818337600083830152505050565b60006102d56102d084610282565b610267565b9050828152602081018484840111156102f1576102f0610202565b5b6102fc8482856102b3565b509392505050565b600082601f830112610319576103186101fd565b5b81356103298482602086016102c2565b91505092915050565b600060208284031215610348576103476101f3565b5b600082013567ffffffffffffffff811115610366576103656101f8565b5b61037284828501610304565b91505092915050565b7f4e487b7100000000000000000000000000000000000000000000000000000000600052602260045260246000fd5b600060028204905060018216806103c257607f821691505b6020821081036103d5576103d461037b565b5b50919050565b60008190508160005260206000209050919050565b60006020601f8301049050919050565b60008160020a8302905092915050565b6000600883026104407fffffffffffffffffffffffffffffffffffffffffffffffffffffffffffffffff82610400565b61044a8683610400565b95508019841693508086168417925050509392505050565b6000819050919050565b6000819050919050565b600061049161048c61048784610462565b61046c565b610462565b9050919050565b6000819050919050565b6104ab83610476565b6104bf6104b782610498565b848454610410565b825550505050565b600090565b6104d46104c7565b6104df8184846104a2565b505050565b5b81811015610503576104f86000826104cc565b6001810190506104e5565b5050565b601f82111561054857610519816103db565b610522846103f0565b81016020851015610531578190505b61054561053d856103f0565b8301826104e4565b50505b505050565b60008160020a8304905092915050565b600061056e6000198460080261054d565b1980831691505092915050565b6000610587838361055d565b9150826002028217905092915050565b6105a082610137565b67ffffffffffffffff8111156105b9576105b8610207565b5b6105c382546103aa565b6105ce828285610507565b600060209050601f83116001811461060157600084156105ef578287015190505b6105f9858261057b565b865550610661565b601f19841661060f866103db565b60005b8281101561063757848901518255600182019150602085019450602081019050610612565b868310156106545784890151610650601f89168261055d565b8355505b6001600288020188555050505b50505050505056fea2646970667358221220c5c6566ab7aae7d99216a986ed0f23785634f17b85eefa978c7dd31d5ba5ba2564736f6c63430008150033",
  "immutableReferences": {},
  "source": "// SPDX-License-Identifier: MIT\npragma solidity >=0.4.22 <0.9.0;\n\ncontract EaseContract {\n  string value;\n  constructor() public {\n    value = \"Hello World\";\n  }\n  function getValue() public view returns (string memory) {\n    return value;\n  }\n  function setValue(string memory _value) public {\n    value = _value;\n  }\n}\n",
  "sourcePath": "/Users/timchen/Documents/GitHub/dapp-solidity/tim-0201/contracts/EaseContract.sol",
  "compiler": {
    "name": "solc",
    "version": "0.8.21+commit.d9974bed.Emscripten.clang"
  },
  "schemaVersion": "3.4.15",
  "updatedAt": "2024-02-01T09:01:13.179Z",
  "networkType": "ethereum",
  "devdoc": {
    "kind": "dev",
    "methods": {},
    "version": 1
  },
  "userdoc": {
    "kind": "user",
    "methods": {},
    "version": 1
  }
}